{
  "contractName": "OnlineClassroom",
  "abi": [
    {
      "inputs": [],
      "payable": false,
      "stateMutability": "nonpayable",
      "type": "constructor"
    },
    {
      "constant": true,
      "inputs": [
        {
          "internalType": "address",
          "name": "",
          "type": "address"
        }
      ],
      "name": "studentAddresses",
      "outputs": [
        {
          "internalType": "uint256",
          "name": "",
          "type": "uint256"
        }
      ],
      "payable": false,
      "stateMutability": "view",
      "type": "function"
    },
    {
      "constant": true,
      "inputs": [
        {
          "internalType": "uint256",
          "name": "",
          "type": "uint256"
        }
      ],
      "name": "studentAnnouncements",
      "outputs": [
        {
          "internalType": "string",
          "name": "",
          "type": "string"
        }
      ],
      "payable": false,
      "stateMutability": "view",
      "type": "function"
    },
    {
      "constant": true,
      "inputs": [
        {
          "internalType": "uint256",
          "name": "",
          "type": "uint256"
        }
      ],
      "name": "studentAttendance",
      "outputs": [
        {
          "internalType": "bool",
          "name": "",
          "type": "bool"
        }
      ],
      "payable": false,
      "stateMutability": "view",
      "type": "function"
    },
    {
      "constant": true,
      "inputs": [
        {
          "internalType": "uint256",
          "name": "",
          "type": "uint256"
        }
      ],
      "name": "studentFiles",
      "outputs": [
        {
          "internalType": "string",
          "name": "",
          "type": "string"
        }
      ],
      "payable": false,
      "stateMutability": "view",
      "type": "function"
    },
    {
      "constant": true,
      "inputs": [
        {
          "internalType": "uint256",
          "name": "",
          "type": "uint256"
        }
      ],
      "name": "students",
      "outputs": [
        {
          "internalType": "uint256",
          "name": "id",
          "type": "uint256"
        },
        {
          "internalType": "string",
          "name": "name",
          "type": "string"
        },
        {
          "internalType": "uint256",
          "name": "age",
          "type": "uint256"
        }
      ],
      "payable": false,
      "stateMutability": "view",
      "type": "function"
    },
    {
      "constant": true,
      "inputs": [],
      "name": "getTotalStudents",
      "outputs": [
        {
          "internalType": "uint256",
          "name": "",
          "type": "uint256"
        }
      ],
      "payable": false,
      "stateMutability": "view",
      "type": "function"
    },
    {
      "constant": true,
      "inputs": [
        {
          "internalType": "uint256",
          "name": "_index",
          "type": "uint256"
        }
      ],
      "name": "viewStudent",
      "outputs": [
        {
          "internalType": "uint256",
          "name": "",
          "type": "uint256"
        },
        {
          "internalType": "string",
          "name": "",
          "type": "string"
        },
        {
          "internalType": "uint256",
          "name": "",
          "type": "uint256"
        }
      ],
      "payable": false,
      "stateMutability": "view",
      "type": "function"
    },
    {
      "constant": false,
      "inputs": [
        {
          "internalType": "uint256",
          "name": "_studentId",
          "type": "uint256"
        },
        {
          "internalType": "string",
          "name": "_fileName",
          "type": "string"
        }
      ],
      "name": "submitFile",
      "outputs": [],
      "payable": false,
      "stateMutability": "nonpayable",
      "type": "function"
    },
    {
      "constant": true,
      "inputs": [
        {
          "internalType": "uint256",
          "name": "_studentId",
          "type": "uint256"
        }
      ],
      "name": "viewFile",
      "outputs": [
        {
          "internalType": "string",
          "name": "",
          "type": "string"
        }
      ],
      "payable": false,
      "stateMutability": "view",
      "type": "function"
    },
    {
      "constant": false,
      "inputs": [
        {
          "internalType": "uint256",
          "name": "_studentId",
          "type": "uint256"
        }
      ],
      "name": "markAttendance",
      "outputs": [],
      "payable": false,
      "stateMutability": "nonpayable",
      "type": "function"
    },
    {
      "constant": false,
      "inputs": [
        {
          "internalType": "uint256",
          "name": "_studentId",
          "type": "uint256"
        },
        {
          "internalType": "address",
          "name": "_studentAddress",
          "type": "address"
        }
      ],
      "name": "registerStudentAddress",
      "outputs": [],
      "payable": false,
      "stateMutability": "nonpayable",
      "type": "function"
    },
    {
      "constant": false,
      "inputs": [
        {
          "internalType": "uint256",
          "name": "_studentId",
          "type": "uint256"
        },
        {
          "internalType": "string",
          "name": "_announcement",
          "type": "string"
        }
      ],
      "name": "makeAnnouncement",
      "outputs": [],
      "payable": false,
      "stateMutability": "nonpayable",
      "type": "function"
    },
    {
      "constant": true,
      "inputs": [
        {
          "internalType": "uint256",
          "name": "_studentId",
          "type": "uint256"
        }
      ],
      "name": "viewAnnouncement",
      "outputs": [
        {
          "internalType": "string",
          "name": "",
          "type": "string"
        }
      ],
      "payable": false,
      "stateMutability": "view",
      "type": "function"
    }
  ],
  "bytecode": "0x60806040523480156200001157600080fd5b5060006040518060600160405280600181526020016040518060400160405280600581526020017f416c6963650000000000000000000000000000000000000000000000000000008152508152602001601481525090806001815401808255809150509060018203906000526020600020906003020160009091929091909150600082015181600001556020820151816001019080519060200190620000b992919062000237565b506040820151816002015550505060006040518060600160405280600281526020016040518060400160405280600381526020017f426f62000000000000000000000000000000000000000000000000000000000081525081526020016016815250908060018154018082558091505090600182039060005260206000209060030201600090919290919091506000820151816000015560208201518160010190805190602001906200016e92919062000237565b506040820151816002015550505060006040518060600160405280600381526020016040518060400160405280600781526020017f436861726c69650000000000000000000000000000000000000000000000000081525081526020016015815250908060018154018082558091505090600182039060005260206000209060030201600090919290919091506000820151816000015560208201518160010190805190602001906200022392919062000237565b5060408201518160020155505050620002e6565b828054600181600116156101000203166002900490600052602060002090601f016020900481019282601f106200027a57805160ff1916838001178555620002ab565b82800160010185558215620002ab579182015b82811115620002aa5782518255916020019190600101906200028d565b5b509050620002ba9190620002be565b5090565b620002e391905b80821115620002df576000816000905550600101620002c5565b5090565b90565b610ee080620002f66000396000f3fe608060405234801561001057600080fd5b50600436106100cf5760003560e01c80634afed7f41161008c578063811013781161006657806381101378146105da578063ade4f8a214610681578063b27d9e0a146106af578063bbef8ae0146106f5576100cf565b80634afed7f414610420578063750edfec1461046e5780637af7136114610515576100cf565b806306ead22e146100d45780630ce5d8e1146101895780630dce6eb0146101e1578063139d5f811461028857806328bcb51a1461034d578063420977d81461036b575b600080fd5b610100600480360360208110156100ea57600080fd5b810190808035906020019092919050505061079c565b6040518084815260200180602001838152602001828103825284818151815260200191508051906020019080838360005b8381101561014c578082015181840152602081019050610131565b50505050905090810190601f1680156101795780820380516001836020036101000a031916815260200191505b5094505050505060405180910390f35b6101cb6004803603602081101561019f57600080fd5b81019080803573ffffffffffffffffffffffffffffffffffffffff16906020019092919050505061086b565b6040518082815260200191505060405180910390f35b61020d600480360360208110156101f757600080fd5b8101908080359060200190929190505050610883565b6040518080602001828103825283818151815260200191508051906020019080838360005b8381101561024d578082015181840152602081019050610232565b50505050905090810190601f16801561027a5780820380516001836020036101000a031916815260200191505b509250505060405180910390f35b61034b6004803603604081101561029e57600080fd5b8101908080359060200190929190803590602001906401000000008111156102c557600080fd5b8201836020820111156102d757600080fd5b803590602001918460018302840111640100000000831117156102f957600080fd5b91908080601f016020809104026020016040519081016040528093929190818152602001838380828437600081840152601f19601f820116905080830192505050505050509192919290505050610933565b005b61035561095f565b6040518082815260200191505060405180910390f35b6103976004803603602081101561038157600080fd5b810190808035906020019092919050505061096b565b6040518084815260200180602001838152602001828103825284818151815260200191508051906020019080838360005b838110156103e35780820151818401526020810190506103c8565b50505050905090810190601f1680156104105780820380516001836020036101000a031916815260200191505b5094505050505060405180910390f35b61046c6004803603604081101561043657600080fd5b8101908080359060200190929190803573ffffffffffffffffffffffffffffffffffffffff169060200190929190505050610a75565b005b61049a6004803603602081101561048457600080fd5b8101908080359060200190929190505050610abd565b6040518080602001828103825283818151815260200191508051906020019080838360005b838110156104da5780820151818401526020810190506104bf565b50505050905090810190601f1680156105075780820380516001836020036101000a031916815260200191505b509250505060405180910390f35b6105d86004803603604081101561052b57600080fd5b81019080803590602001909291908035906020019064010000000081111561055257600080fd5b82018360208201111561056457600080fd5b8035906020019184600183028401116401000000008311171561058657600080fd5b91908080601f016020809104026020016040519081016040528093929190818152602001838380828437600081840152601f19601f820116905080830192505050505050509192919290505050610b6d565b005b610606600480360360208110156105f057600080fd5b8101908080359060200190929190505050610b99565b6040518080602001828103825283818151815260200191508051906020019080838360005b8381101561064657808201518184015260208101905061062b565b50505050905090810190601f1680156106735780820380516001836020036101000a031916815260200191505b509250505060405180910390f35b6106ad6004803603602081101561069757600080fd5b8101908080359060200190929190505050610c4e565b005b6106db600480360360208110156106c557600080fd5b8101908080359060200190929190505050610d31565b604051808215151515815260200191505060405180910390f35b6107216004803603602081101561070b57600080fd5b8101908080359060200190929190505050610d51565b6040518080602001828103825283818151815260200191508051906020019080838360005b83811015610761578082015181840152602081019050610746565b50505050905090810190601f16801561078e5780820380516001836020036101000a031916815260200191505b509250505060405180910390f35b600081815481106107a957fe5b9060005260206000209060030201600091509050806000015490806001018054600181600116156101000203166002900480601f01602080910402602001604051908101604052809291908181526020018280546001816001161561010002031660029004801561085b5780601f106108305761010080835404028352916020019161085b565b820191906000526020600020905b81548152906001019060200180831161083e57829003601f168201915b5050505050908060020154905083565b60036020528060005260406000206000915090505481565b60016020528060005260406000206000915090508054600181600116156101000203166002900480601f01602080910402602001604051908101604052809291908181526020018280546001816001161561010002031660029004801561092b5780601f106109005761010080835404028352916020019161092b565b820191906000526020600020905b81548152906001019060200180831161090e57829003601f168201915b505050505081565b8060016000848152602001908152602001600020908051906020019061095a929190610e06565b505050565b60008080549050905090565b60006060600080848154811061097d57fe5b9060005260206000209060030201600001546000858154811061099c57fe5b9060005260206000209060030201600101600086815481106109ba57fe5b906000526020600020906003020160020154818054600181600116156101000203166002900480601f016020809104026020016040519081016040528092919081815260200182805460018160011615610100020316600290048015610a615780601f10610a3657610100808354040283529160200191610a61565b820191906000526020600020905b815481529060010190602001808311610a4457829003601f168201915b505050505091509250925092509193909250565b81600360008373ffffffffffffffffffffffffffffffffffffffff1673ffffffffffffffffffffffffffffffffffffffff168152602001908152602001600020819055505050565b60046020528060005260406000206000915090508054600181600116156101000203166002900480601f016020809104026020016040519081016040528092919081815260200182805460018160011615610100020316600290048015610b655780601f10610b3a57610100808354040283529160200191610b65565b820191906000526020600020905b815481529060010190602001808311610b4857829003601f168201915b505050505081565b80600460008481526020019081526020016000209080519060200190610b94929190610e06565b505050565b6060600460008381526020019081526020016000208054600181600116156101000203166002900480601f016020809104026020016040519081016040528092919081815260200182805460018160011615610100020316600290048015610c425780601f10610c1757610100808354040283529160200191610c42565b820191906000526020600020905b815481529060010190602001808311610c2557829003601f168201915b50505050509050919050565b80600360003373ffffffffffffffffffffffffffffffffffffffff1673ffffffffffffffffffffffffffffffffffffffff1681526020019081526020016000205414610d02576040517f08c379a00000000000000000000000000000000000000000000000000000000081526004018080602001828103825260188152602001807f496e76616c69642073747564656e74206164647265737321000000000000000081525060200191505060405180910390fd5b60016002600083815260200190815260200160002060006101000a81548160ff02191690831515021790555050565b60026020528060005260406000206000915054906101000a900460ff1681565b6060600160008381526020019081526020016000208054600181600116156101000203166002900480601f016020809104026020016040519081016040528092919081815260200182805460018160011615610100020316600290048015610dfa5780601f10610dcf57610100808354040283529160200191610dfa565b820191906000526020600020905b815481529060010190602001808311610ddd57829003601f168201915b50505050509050919050565b828054600181600116156101000203166002900490600052602060002090601f016020900481019282601f10610e4757805160ff1916838001178555610e75565b82800160010185558215610e75579182015b82811115610e74578251825591602001919060010190610e59565b5b509050610e829190610e86565b5090565b610ea891905b80821115610ea4576000816000905550600101610e8c565b5090565b9056fea265627a7a723158201618683204a8dc12fd58484e5b3b5630fc7db2baf9e71c89501aef8dd2a0904064736f6c63430005100032",
  "source": "pragma solidity ^0.5.16;\r\n\r\ncontract OnlineClassroom {\r\n    struct Student {\r\n        uint id;\r\n        string name;\r\n        uint age;\r\n    }\r\n\r\n    Student[] public students;\r\n    mapping(uint => string) public studentFiles;\r\n    mapping(uint => bool) public studentAttendance;\r\n    mapping(address => uint) public studentAddresses;\r\n    mapping(uint => string) public studentAnnouncements;\r\n\r\n    constructor() public {\r\n        students.push(Student(1, \"Alice\", 20));\r\n        students.push(Student(2, \"Bob\", 22));\r\n        students.push(Student(3, \"Charlie\", 21));\r\n    }\r\n\r\n    function getTotalStudents() public view returns (uint) {\r\n        return students.length;\r\n    }\r\n\r\n    function viewStudent(uint _index) public view returns (uint, string memory, uint) {\r\n        return (students[_index].id, students[_index].name, students[_index].age);\r\n    }\r\n\r\n    function submitFile(uint _studentId, string memory _fileName) public {\r\n        studentFiles[_studentId] = _fileName;\r\n    }\r\n\r\n    function viewFile(uint _studentId) public view returns (string memory) {\r\n        return studentFiles[_studentId];\r\n    }\r\n\r\n    function markAttendance(uint _studentId) public {\r\n        require(studentAddresses[msg.sender] == _studentId, \"Invalid student address!\");\r\n        studentAttendance[_studentId] = true;\r\n    }\r\n\r\n    function registerStudentAddress(uint _studentId, address _studentAddress) public {\r\n        studentAddresses[_studentAddress] = _studentId;\r\n    }\r\n\r\n    function makeAnnouncement(uint _studentId, string memory _announcement) public {\r\n        studentAnnouncements[_studentId] = _announcement;\r\n    }\r\n\r\n    function viewAnnouncement(uint _studentId) public view returns (string memory) {\r\n        return studentAnnouncements[_studentId];\r\n    }\r\n}\r\n",
  "sourcePath": "/home/ruman/BlockAcademy/online-classroom-dapp/contracts/OnlineClassroom.sol",
  "compiler": {
    "name": "solc",
    "version": "0.5.16+commit.9c3226ce.Emscripten.clang"
  },
  "schemaVersion": "3.4.16",
  "updatedAt": "2024-05-06T07:16:48.677Z",
  "networkType": "ethereum",
  "devdoc": {
    "methods": {}
  },
  "userdoc": {
    "methods": {}
  }
}